:060000000A128A1110280B
:10000800FE00030EF8000408F9000A08FA007F0849
:10001800FB000A128A11012B0A128A111328831372
:100028005330FD000330FE009130FF004330840060
:100038000A128A1170230A128A11D301D401D50138
:10004800D601D701D801D901DA01DB01FC0183010E
:100058000A128A11A12B373084000830FF0083135D
:100068008001840AFF0B3328043083120313A8008D
:100078000030A900FF30AA000330AB0037300A1265
:100088008A11B8210A128A11831203135B08031D0F
:100098004E284F2848280A128A1158230A128A1112
:1000A800831203132108C0002008BF00C101C20148
:1000B800831203134108B1003107373E84008313CC
:1000C8000008B200840A0008B3003208FE3EB400FB
:1000D80033080318013EFF3EB5003508803AB600E4
:1000E8004008803A3602031D7B283F083402031873
:1000F8007E287F288F28013083120313B100410A1C
:1001080087280310B10DFF3E031D85283108FF3AEB
:1001180005058500C028831203134108B100310783
:10012800373E840083130008B200840A0008B30035
:100138003208FE3EB40033080318013EFF3EB50006
:100148003508803AB6004008803A3602031DAE28CA
:100158003F083402031CB128B228C028013083129A
:100168000313B100410ABA280310B10DFF3E031D65
:10017800B828310805048500013083120313C1072C
:100188000318C20A0030C2074208803AFF008030D4
:100198007F02031DD12804304102031CD428D5282E
:1001A8005C28482808002C3084004330831203134D
:1001B800A8000408A9000730AA00280884008313AF
:1001C8000008AB00A80A290884002B088000A90AA7
:1001D800AA0BE1285008B9005108BA005208BB0020
:1001E800333084004A088000840A4B088000840A5F
:1001F8004C088000840A4D088000840A4E0880005C
:10020800840A4F0880003908A0003A08A1003B087A
:10021800A2000A128A11CE220A128A112030840002
:1002280083120313330883138000840A3408800080
:10023800840A35088000840A36088000840A370852
:100248008000840A380880000A128A1196220A124D
:100258008A11203084002C3083120313A80004086C
:10026800A9000730AA002808840083130008AB00FF
:10027800A80A290884002B088000A90AAA0B372994
:100288000A128A115D220A128A110A128A117F2320
:100298000A128A11080083120313A501A11F552908
:1002A80056295D29A009A109A00A0319A10AA501D7
:1002B800A50AA31F602961296A29A209A309A20A1C
:1002C8000319A30A0130FF007F08A506A601A701AC
:1002D80020082104031971297229A929A401A40A53
:1002E800802901300310A00DA10DFF3E031D7629C2
:1002F8000130FF007F08A407A11F832984297529DD
:1003080001300310A60DA70DFF3E031D8529210806
:100318002302031D912920082202031C94299529F0
:100328009C292008A2022108031CA303A302261467
:1003380001300310A10CA00CFF3E031D9D290130C4
:10034800A402031DA829A929842925080319AD2970
:10035800AE29B329A609A709A60A0319A70A2708D7
:10036800A1002608A000080083120313B000280883
:10037800013EA00029080318013E003EA1002B08F9
:10038800A3002A08A2000A128A114F210A128A1110
:100398008312031330088400200883138000840A22
:1003A80021088000AE01AF01052A831203132E082D
:1003B800013EA0002F080318013E003EA1003008AE
:1003C800840083130008A200840A0008A3000A120C
:1003D8008A1131230A128A11831203132E08AC00E2
:1003E8002C073007AD002D088400200883138000F7
:1003F800840A210880000130AE070318AF0A0030D4
:10040800AF072F08803AAC002908803A2C02031D58
:100418000F2A28082E02031C122A132AD929080099
:10042800F5002930F400F40B172A00007008F400D6
:1004380074077504F6007C08031D232A242A3C2A25
:100448007603031D282A292A2F2A710884000130DF
:10045800831380023C2A02307606031D342A352A8B
:100468003C2A0130FF00710884007F08831380074D
:10047800710884008313000872020318442A452A6D
:100488004A2A7108840073088000562A710884007B
:10049800730800020318512A522A562A7108840048
:1004A800720880007608FC00831203130608860091
:1004B800080083120313200C031C1F1003181F14B9
:1004C800260C031C9F1003189F142208A700A70DD1
:1004D800A70D1F082706C33927069F002308A70072
:1004E800A70EA70DA70D1F0827063F3927069F004F
:1004F800210C83160313031C9F1303189F178312E1
:100508000313250C83160313031C9F1203189F164D
:1005180083120313240C83160313031C1F120318DE
:100528001F16080083120313200C031C8B130318D7
:100538008B17210C031C0B1203180B16220C031C1F
:100548000B1303180B17230C031C8B1203188B16A1
:10055800240C031C8B1103188B1583160313161612
:10056800961683120313250C83160313031C011319
:10057800031801170B1EC12AC22AC32A8B108B1D10
:10058800C62AC72AC82A0B108B1ECB2ACC2ACD2AEA
:100598000B11080083120313200C83160313031C8A
:1005A8000F1003180F14831203132108A300A30EBE
:1005B800831603130F088312031323068F392306A8
:1005C800831603138F0083120313220C831603135D
:1005D800031C8F1103188F150F0E0739003A031DDE
:1005E800F62AF72AFC2A8F1CFA2AFB2AF72A002B5C
:1005F8000F1DFF2A002BFC2A08000B1C042B052BBF
:10060800262B003083120313861A0130F0005B306A
:10061800F1000430F200F301060E01390A128A11C2
:1006280014220A128A110130F700831203135B0A9D
:100638001F2B0310F70DFF3E031D1D2B7708FF3AF4
:1006480085000B107B08FF007A088A00790884006F
:10065800780E8300FE0E7E0E090083120313A40198
:10066800A501201C382B392B3F2B2208A40703187F
:10067800A50A2308A50701300310A20DA30DFF3E0C
:10068800031D402B01300310A10CA00CFF3E031DDD
:10069800472B20082104031D522B532B352B2508EB
:1006A800A1002408A0000800831203139F149F18B8
:1006B8005E2B5F2B5B2B1E08A300831603131E08FB
:1006C80083120313A2002308A1002208A000080037
:1006D8007E088A007F0882000A128A116C230A1297
:1006E8008A118000840A04087D0603190034FF0A71
:1006F8000319FE0A702B8316031385010130831238
:100708000313850083160313061686160915831628
:100718000317880189018817080001340134073458
:10072800003400340034013401340034003400341F
:10073800013401340134033401340A128A11D720F8
:100748000A128A110A128A112F200A128A110A1211
:040758008A111028CA
:04400E00C423FF3F89
:00000001FF
