:060000000A128A1110280B
:10000800FE00030EF8000408F9000A08FA007F0849
:10001800FB000A128A11192B0A128A11132883135A
:10002800B830FD000330FE007130FF00A0308400BE
:100038000A128A11A1230A128A116430FD000330C2
:10004800FE00C230FF00543084000A128A11A12336
:100058000A128A11E401E501E601E701E801E90174
:10006800EA01EB01FC01FD0183010A128A11D22B7E
:10007800373084000830FF0083138001840AFF0BA7
:100088004028043083120313A8000030A900FF3071
:10009800AA000330AB0037300A128A11D3210A12A2
:1000A8008A110A128A1189230A128A1183120313E8
:1000B8002108C0002008BF00C101C2018312031338
:1000C8004108B1003107373E840083130008B200AD
:1000D800840A0008B3003208FE3EB400330803184F
:1000E800013EFF3EB5003508803AB6004008803A28
:1000F8003602031D81283F08340203188428852806
:100108009528013083120313B100410A8D2803108A
:10011800B10DFF3E031D8B283108FF3A0505850008
:10012800C628831203134108B1003107373E840003
:1001380083130008B200840A0008B3003208FE3EA8
:10014800B40033080318013EFF3EB5003508803A75
:10015800B6004008803A3602031DB4283F0834022E
:10016800031CB728B828C628013083120313B1002E
:10017800410AC0280310B10DFF3E031DBE283108F7
:1001880005048500013083120313C1070318C20A4E
:100198000030C2074208803AFF0080307F02031D0A
:1001A800D72804304102031CDA28DB2862285528A6
:1001B800080044308400543083120313A800040854
:1001C800A9000730AA002808840083130008AB00A0
:1001D800A80A290884002B088000A90AAA0BE72886
:1001E8006108D1006208D2006308D3004B30840054
:1001F8005B088000840A5C088000840A5D0880002F
:10020800840A5E088000840A5F088000840A600807
:1002180080002C308400A030A8000408A900183001
:10022800AA002808840083130008AB00A80A29083C
:1002380084002B088000A90AAA0B15295108A000E0
:100248005208A1005308A2000A128A11E6220A12D3
:100258008A1120308400831203134B088313800013
:10026800840A4C088000840A4D088000840A4E08DD
:100278008000840A4F088000840A500880000A120F
:100288008A11AE220A128A11203084004430831267
:100298000313A8000408A9000730AA00280884004E
:1002A80083130008AB00A80A290884002B088000E3
:1002B800A90AAA0B52290A128A1175220A128A114E
:1002C8000A128A11B0230A128A1108008312031332
:1002D800A501A11F702971297829A009A109A00ADF
:1002E8000319A10AA501A50AA31F7B297C29852931
:1002F800A209A309A20A0319A30A0130FF007F0873
:10030800A506A601A7012008210403198C298D2917
:10031800C429A401A40A9B2901300310A00DA10D32
:10032800FF3E031D91290130FF007F08A407A11F8C
:100338009E299F29902901300310A60DA70DFF3E85
:10034800031DA02921082302031DAC29200822022D
:10035800031CAF29B029B7292008A2022108031CD1
:10036800A303A302261401300310A10CA00CFF3E26
:10037800031DB8290130A402031DC329C4299F29DC
:1003880025080319C829C929CE29A609A709A60A33
:100398000319A70A2708A1002608A000080083124D
:1003A8000313B0002808013EA00029080318013EE5
:1003B800003EA1002B08A3002A08A2000A128A11F5
:1003C8006A210A128A118312031330088400200854
:1003D80083138000840A21088000AE01AF01202A1F
:1003E800831203132E08013EA0002F080318013EB4
:1003F800003EA1003008840083130008A200840A8C
:100408000008A3000A128A114A230A128A118312C9
:1004180003132E08AC002C073007AD002D0884000C
:10042800200883138000840A210880000130AE0769
:100438000318AF0A0030AF072F08803AAC0029082C
:10044800803A2C02031D2A2A28082E02031C2D2A72
:100458002E2AF4290800F5002930F400F40B322A7A
:1004680000007008F40074077504F6007C08031D8A
:100478003E2A3F2A552A7603031D432A442A492A3D
:100488007108840001308002552A02307606031D67
:100498004E2A4F2A552A0130FF00710884007F0830
:1004A8008007710884000008720203185C2A5D2A1C
:1004B800622A71088400730880006E2A710884001B
:1004C800730800020318692A6A2A6E2A71088400D0
:1004D800720880007608FC00831203130608860061
:1004E800080083120313200C031C1F1003181F1489
:1004F800260C031C9F1003189F142208A700A70DA1
:10050800A70D1F082706C33927069F002308A70041
:10051800A70EA70DA70D1F0827063F3927069F001E
:10052800210C83160313031C9F1303189F178312B0
:100538000313250C83160313031C9F1203189F161D
:1005480083120313240C83160313031C1F120318AE
:100558001F16080083120313200C031C8B130318A7
:100568008B17210C031C0B1203180B16220C031CEF
:100578000B1303180B17230C031C8B1203188B1671
:10058800240C031C8B1103188B15831603131616E2
:10059800961683120313250C83160313031C0113E9
:1005A800031801170B1ED92ADA2ADB2A8B108B1D98
:1005B800DE2ADF2AE02A0B108B1EE32AE42AE52A2A
:1005C8000B11080083120313200C83160313031C5A
:1005D8000F1003180F14831203132108A300A30E8E
:1005E800831603130F088312031323068F39230678
:1005F800831603138F0083120313220C831603132D
:10060800031C8F1103188F150F0E0739003A031DAD
:100618000E2B0F2B142B8F1C122B132B0F2B182B7D
:100628000F1D172B182B142B08000B1C1C2B1D2B14
:100638003F2B003083120313861A0130F0007D30FF
:10064800F1000430F200F301060E01390A128A1192
:100658002F220A128A110130F7007D0A352B031068
:10066800F70DFF3E031D332B7708FF3A8312031360
:1006780085000B108B107B08FF007A088A00790828
:100688008400780E8300FE0E7E0E09008312031389
:10069800A401A501201C512B522B582B2208A4077A
:1006A8000318A50A2308A50701300310A20DA30DFE
:1006B800FF3E031D592B01300310A10CA00CFF3E77
:1006C800031D602B20082104031D6B2B6C2B4E2B64
:1006D8002508A1002408A00008008534003405344A
:1006E800003488340134003400348634003406344D
:1006F8000034893401340134003489340034093435
:1007080000348934013401340134831203139F14F3
:100718009F188F2B902B8C2B1E08A3008316031376
:100728001E0883120313A2002308A1002208A000B8
:1007380008007E088A007F0882000A128A119D2319
:100748000A128A118000840A04087D0603190034FD
:10075800FF0A0319FE0AA12B831603138501013032
:1007680083120313850083160313061686160915CC
:10077800831603178801890188170800013401349A
:1007880007340034003400340134013401340034B7
:100798000034013401340134033401340A128A115B
:1007A800DD200A128A110A128A113C200A128A11C3
:0607B8000A128A1110284C
:04400E00C423FF3F89
:00000001FF
