:060000000A128A1110280B
:10000800FE00030EF8000408F9000A08FA007F0849
:10001800FB000A128A11F72A0A128A11132883137D
:100028005330FD000330FE008730FF00433084006A
:100038000A128A1166230A128A11D301D401D50142
:10004800D601D701D801D901DA01FC01FD018301EC
:100058000A128A11972B373084000830FF00831367
:100068008001840AFF0B3328043083120313A8008D
:100078000030A900FF30AA000330AB0037300A1265
:100088008A11B1210A128A110A128A114E230A1200
:100098008A11831203132108C0002008BF00C10180
:1000A800C201831203134108B1003107373E8400AF
:1000B80083130008B200840A0008B3003208FE3E29
:1000C800B40033080318013EFF3EB5003508803AF6
:1000D800B6004008803A3602031D74283F083402EF
:1000E8000318772878288828013083120313B10071
:1000F800410A80280310B10DFF3E031D7E283108F8
:10010800FF3A05058500B928831203134108B10099
:100118003107373E840083130008B200840A0008C0
:10012800B3003208FE3EB40033080318013EFF3E18
:10013800B5003508803AB6004008803A3602031DFB
:10014800A7283F083402031CAA28AB28B928013085
:1001580083120313B100410AB3280310B10DFF3E07
:10016800031DB128310805048500013083120313EB
:10017800C1070318C20A0030C2074208803AFF00CC
:1001880080307F02031DCA2804304102031CCD2899
:10019800CE285528482808002C3084004330831284
:1001A8000313A8000408A9000730AA00280884003F
:1001B80083130008AB00A80A290884002B088000D4
:1001C800A90AAA0BDA285008B9005108BA0052083F
:1001D800BB00333084004A088000840A4B08800042
:1001E800840A4C088000840A4D088000840A4E085E
:1001F8008000840A4F0880003908A0003A08A1004E
:100208003B08A2000A128A11C4220A128A1120305D
:10021800840083120313330883138000840A34088C
:100228008000840A35088000840A36088000840A21
:1002380037088000840A380880000A128A118C2244
:100248000A128A11203084002C3083120313A8006C
:100258000408A9000730AA002808840083130008AE
:10026800AB00A80A290884002B088000A90AAA0B59
:1002780030290A128A1153220A128A110A128A1183
:1002880075230A128A11080083120313A501A11FFE
:100298004E294F295629A009A109A00A0319A10A24
:1002A800A501A50AA31F59295A296329A209A30947
:1002B800A20A0319A30A0130FF007F08A506A601B8
:1002C800A7012008210403196A296B29A229A4017E
:1002D800A40A792901300310A00DA10DFF3E031DCA
:1002E8006F290130FF007F08A407A11F7C297D2901
:1002F8006E2901300310A60DA70DFF3E031D7E29B0
:1003080021082302031D8A2920082202031C8D29A3
:100318008E2995292008A2022108031CA303A30201
:10032800261401300310A10CA00CFF3E031D9629D2
:100338000130A402031DA129A2297D29250803193A
:10034800A629A729AC29A609A709A60A0319A70A55
:100358002708A1002608A000080083120313B00094
:100368002808013EA00029080318013E003EA1000C
:100378002B08A3002A08A2000A128A1148210A128F
:100388008A11831203133008840020088313800025
:10039800840A21088000AE01AF01FE2983120313ED
:1003A8002E08013EA0002F080318013E003EA100C0
:1003B8003008840083130008A200840A0008A30000
:1003C8000A128A1127230A128A11831203132E088C
:1003D800AC002C073007AD002D08840020088313DB
:1003E8008000840A210880000130AE070318AF0A94
:1003F8000030AF072F08803AAC002908803A2C0259
:10040800031D082A28082E02031C0B2A0C2AD229AD
:100418000800F5002930F400F40B102A00007008D9
:10042800F40074077504F6007C08031D1C2A1D2AB5
:10043800332A7603031D212A222A272A71088400D9
:1004480001308002332A02307606031D2C2A2D2A19
:10045800332A0130FF00710884007F088007710883
:1004680084000008720203183A2A3B2A402A7108BD
:100478008400730880004C2A710884007308000205
:100488000318472A482A4C2A7108840072088000F9
:100498007608FC00831203130608860008008312FE
:1004A8000313200C031C1F1003181F14260C031C15
:1004B8009F1003189F142208A700A70DA70D1F0857
:1004C8002706C33927069F002308A700A70EA70DF4
:1004D800A70D1F0827063F3927069F00210C831602
:1004E8000313031C9F1303189F1783120313250C70
:1004F80083160313031C9F1203189F1683120313FA
:10050800240C83160313031C1F1203181F1608005C
:1005180083120313200C031C8B1303188B17210C55
:10052800031C0B1203180B16220C031C0B130318C5
:100538000B17230C031C8B1203188B16240C031C9B
:100548008B1103188B158316031316169616831230
:100558000313250C83160313031C01130318011737
:100568000B1EB72AB82AB92A8B108B1DBC2ABD2AA4
:10057800BE2A0B108B1EC12AC22AC32A0B110800DF
:1005880083120313200C83160313031C0F10031884
:100598000F14831203132108A300A30E8316031359
:1005A8000F088312031323068F39230683160313B8
:1005B8008F0083120313220C83160313031C8F115D
:1005C80003188F150F0E0739003A031DEC2AED2A80
:1005D800F22A8F1CF02AF12AED2AF62A0F1DF52A95
:1005E800F62AF22A08000B1CFA2AFB2A1C2B0030D8
:1005F80083120313861A0130F0007D30F1000430B5
:10060800F200F301060E01390A128A110D220A12AC
:100618008A110130F7007D0A132B0310F70DFF3EF6
:10062800031D112B7708FF3A8312031385000B1063
:100638007B08FF007A088A0079088400780E830016
:10064800FE0E7E0E090083120313A401A501201CCF
:100658002E2B2F2B352B2208A4070318A50A2308B5
:10066800A50701300310A20DA30DFF3E031D362B75
:1006780001300310A10CA00CFF3E031D3D2B2008E8
:100688002104031D482B492B2B2B2508A1002408E6
:10069800A0000800831203139F149F18542B552B96
:1006A800512B1E08A300831603131E08831203137D
:1006B800A2002308A1002208A00008007E088A00E2
:1006C8007F0882000A128A1162230A128A118000A6
:1006D800840A04087D0603190034FF0A0319FE0A78
:1006E800662B8316031385010130831203138500DB
:1006F8008316031306168616091583160317880131
:1007080089018817080001340134073400340034A3
:10071800003401340134003400340034013401342D
:100728000134033401340A128A11D0200A128A11C2
:100738000A128A112F200A128A110A128A11102805
:04400E00C423FF3F89
:00000001FF
